:100000000C944A000C945C000C945C000C945C0012
:100010000C945C000C945C000C945C000C945C00F0
:100020000C945C000C945C000C945C000C945C00E0
:100030000C945C000C945C000C945C000C945C00D0
:100040000C946C000C945C000C945C000C945C00B0
:100050000C945C000C945C000C945C000C945C00B0
:100060000C945C000C945C000C945C000C945C00A0
:100070000C945C000C945C000C945C000C945C0090
:100080000C9412010C945C000C944E010C945C00D6
:100090000C945C0011241FBECFEFD0E1DEBFCDBFBA
:1000A00021E0A0E0B1E001C01D92A23BB207E1F760
:1000B0000E945D020C9490020C94000010920701C3
:1000C000109202011092010182E080936E008BE099
:1000D00084BD89EF87BD08951F920F920FB60F92CE
:1000E00011248F93809107018F5F809307018F9177
:1000F0000F900FBE0F901F901895809104018823D8
:1001000031F08130F9F410920401A39808958091A0
:1001100006018F5F809306012091050128172CF0BE
:10012000A39A81E0809304010895082E000C990B96
:10013000022E000C330B2C593F4F2817390714F4AB
:100140001092060108959B9A1092060181E0809317
:10015000050110920401089589B18078809303010C
:1001600008955F9A0C94AC00809101019091020176
:100170000196803127E2920729F090930201809343
:10018000010104C01092020110920101809101014D
:10019000909102016AE070E00E947C02892B19F4C0
:1001A000A8950C947D00089584B714BE843081F026
:1001B0002CF4813041F0823049F00895883051F0BC
:1001C000803151F0089510920001089581E005C03A
:1001D00082E003C083E001C084E0809300010895C1
:1001E000E9ECF0E088E180831092CD0080E180931B
:1001F000CC0086E08093CA00808180688083109262
:100200005D0110925C0110920A0110920901109296
:10021000B1011092B00110925F0110925E01109234
:100220005B0108951F920F920FB60F9211240BB627
:100230000F922F933F938F939F93EF93FF93809110
:100240005C0190915D0101968035910529F09093B4
:100250005D0180935C0104C010925D0110925C010D
:1002600080915C0190915D012091090130910A011A
:100270008217930731F02091CE00FC01E55FFE4F1D
:100280002083FF91EF919F918F913F912F910F903C
:100290000BBE0F900FBE0F901F9018951F920F92DC
:1002A0000FB60F9211240BB60F922F933F938F939B
:1002B0009F93EF93FF9380915E0190915F01209156
:1002C000B0013091B10128173907B9F00196803596
:1002D000910529F090935F0180935E0104C0109214
:1002E0005F0110925E01E0915E01F0915F01E05AC2
:1002F000FE4F80818093CE0007C08091C9008F7B24
:100300008093C90010925B01FF91EF919F918F91B3
:100310003F912F910F900BBE0F900FBE0F901F902B
:1003200018952091B0013091B10180915E019091BA
:100330005F012817390711F181E080935B018091FB
:10034000C90080648093C90080915E0190915F0133
:1003500001968035910529F090935F0180935E01AD
:1003600004C010925F0110925E01E0915E01F09175
:100370005F01E05AFE4F80818093CE000895209166
:10038000B0013091B1012F5F3F4F2035310529F089
:100390003093B1012093B00104C01092B1011092CA
:1003A000B0012091B0013091B10140915E015091B6
:1003B0005F012417350721F0F901E05AFE4F8083D1
:1003C00080915B01811102C00C949101089590917C
:1003D000C80095FFFCCF8093CE000895FC012081DA
:1003E000222389F12091B0013091B1012F5F3F4F5D
:1003F0002035310529F03093B1012093B00104C0BC
:100400001092B1011092B0012091B0013091B10170
:1004100040915E0150915F012417350741F0F901C9
:10042000E05AFE4FDC014C91408320E009C010925D
:10043000B1011092B00110925F0110925E0121E0B3
:100440000196222359F280915B01811102C00C9424
:10045000910108958091C8008074089581E04091D1
:100460005C0150915D012091090130910A01421710
:10047000530709F480E008958091090190910A01E1
:1004800001968035910529F090930A018093090126
:1004900004C010920A0110920901E0910901F09143
:1004A0000A01E55FFE4F808108958091C80087FFB3
:1004B00003C08091CE00F9CF08950E94D4000E941D
:1004C0005E000E94A3000E94F000789498E088E10A
:1004D0000FB6F894A895809360000FBE90936000CB
:1004E000809107018823E1F3809107018150809377
:1004F00007010E94B400F4CFAA1BBB1B51E107C047
:10050000AA1FBB1FA617B70710F0A61BB70B881FA3
:10051000991F5A95A9F780959095BC01CD01089532
:04052000F894FFCF7D
:00000001FF
