:100000000C944A000C945C000C945C000C945C0012
:100010000C945C000C945C000C945C000C945C00F0
:100020000C945C000C945C000C945C000C945C00E0
:100030000C945C000C945C000C945C000C945C00D0
:100040000C946C000C945C000C945C000C945C00B0
:100050000C945C000C945C000C945C000C945C00B0
:100060000C945C000C945C000C945C000C945C00A0
:100070000C945C000C945C000C945C000C945C0090
:100080000C943D010C945C000C9479010C94950245
:100090000C945C0011241FBECFEFD0E1DEBFCDBFBA
:1000A00023E0A0E0B1E001C01D92A43BB207E1F75C
:1000B0000E94ED020C9423030C940000109207019F
:1000C000109202011092010182E080936E008BE099
:1000D00084BD89EF87BD08951F920F920FB60F92CE
:1000E00011248F93809107018F5F809307018F9177
:1000F0000F900FBE0F901F901895809104018823D8
:1001000031F08130F9F410920401A39808958091A0
:1001100006018F5F809306012091050128172CF0BE
:10012000A39A81E0809304010895082E000C990B96
:10013000022E000C330B2C593F4F2817390714F4AB
:100140001092060108959B9A1092060181E0809317
:10015000050110920401089589B18078809303010C
:1001600008955F9A0C94AC00809101019091020176
:100170000196803127E2920729F090930201809343
:10018000010104C01092020110920101809101014D
:10019000909102016AE070E00E940F03892B71F5D3
:1001A000A89582E30E94EA010E945902811117C0BA
:1001B00081E380930D0182E380930E0183E38093BA
:1001C0000F0184E38093100185E3809311018091F6
:1001D0000C02813659F410920401A39808950E94EC
:1001E0005902882329F30E946702F9CF80910C02FB
:1001F000823621F481E080930401A39A089584B7A4
:1002000014BE843081F02CF4813041F0823049F00A
:100210000895883051F0803151F008951092000116
:10022000089581E005C082E003C083E001C084E05E
:10023000809300010895E9ECF0E088E1808310925A
:10024000CD0080E18093CC0086E08093CA0080815D
:100250008068808310925F0310925E0310920C03FB
:1002600010920B031092B3031092B2031092610329
:100270001092600310925D0308951F920F920FB6C3
:100280000F9211240BB60F922F933F938F939F934E
:10029000EF93FF9380915E0390915F030196803509
:1002A000910529F090935F0380935E0304C0109240
:1002B0005F0310925E0380915E0390915F03209133
:1002C0000B0330910C038217930731F02091CE007D
:1002D000FC01E35FFC4F2083FF91EF919F918F9191
:1002E0003F912F910F900BBE0F900FBE0F901F905C
:1002F00018951F920F920FB60F9211240BB60F9202
:100300002F933F938F939F93EF93FF93809160037D
:10031000909161032091B2033091B30328173907FC
:10032000B9F001968035910529F09093610380938F
:10033000600304C01092610310926003E0916003B7
:10034000F0916103EE59FC4F80818093CE0007C08D
:100350008091C9008F7B8093C90010925D03FF914B
:10036000EF919F918F913F912F910F900BBE0F9026
:100370000FBE0F901F9018952091B2033091B303D8
:1003800080916003909161032817390711F181E092
:1003900080935D038091C90080648093C90080913F
:1003A00060039091610301968035910529F0909347
:1003B00061038093600304C0109261031092600394
:1003C000E0916003F0916103EE59FC4F80818093CE
:1003D000CE0008952091B2033091B3032F5F3F4FB9
:1003E0002035310529F03093B3032093B20304C0C4
:1003F0001092B3031092B2032091B2033091B30371
:1004000040916003509161032417350721F0F901F1
:10041000EE59FC4F808380915D03811102C00C94E2
:10042000BC0108959091C80095FFFCCF8093CE0049
:100430000895FC012081222389F12091B20330919B
:10044000B3032F5F3F4F2035310529F03093B303BD
:100450002093B20304C01092B3031092B203209110
:10046000B2033091B30340916003509161032417AC
:10047000350741F0F901EE59FC4FDC014C91408306
:1004800020E009C01092B3031092B20310926103EE
:100490001092600321E00196222359F280915D03BE
:1004A000811102C00C94BC0108958091C800807431
:1004B000089581E040915E0350915F0320910B030A
:1004C00030910C034217530709F480E0089580919E
:1004D0000B0390910C0301968035910529F09093C0
:1004E0000C0380930B0304C010920C0310920B03B7
:1004F000E0910B03F0910C03E35FFC4F80810895C2
:100500008091C80087FF03C08091CE00F9CF089585
:10051000880F8093BA0085EC8093BC000895ECEBC3
:10052000F0E080818B7B808308951F920F920FB63D
:100530000F9211240BB60F928F939F93EF93FF931B
:100540008091B900887F803611F48FEF0BC08091C5
:10055000B900887F803881F48091BB0090910901B7
:100560009F3F19F48093090120C0E0910901F0E058
:10057000E45FFD4F808310C08091B900887F883B85
:10058000E1F48091BB00909109019F3F11F48093A9
:10059000090188E48093BB00809109018F5F8093FB
:1005A0000901809109018F3F21F08091BC00856C89
:1005B00007C08091BC00856803C08091BC00856441
:1005C0008093BC00FF91EF919F918F910F900BBE94
:1005D0000F900FBE0F901F9018950E94FF000E9471
:1005E0005E000E94A3000E941B0182E30E94880219
:1005F000789498E088E10FB6F894A895809360000D
:100600000FBE90936000809107018823E1F38091F1
:1006100007018150809307010E94B400F4CFAA1B08
:10062000BB1B51E107C0AA1FBB1FA617B70710F0DD
:10063000A61BB70B881F991F5A95A9F7809590950F
:0A064000BC01CD010895F894FFCF2E
:00000001FF
